{
  "contractName": "Whitelist",
  "abi": [
    {
      "inputs": [],
      "stateMutability": "nonpayable",
      "type": "constructor"
    },
    {
      "anonymous": false,
      "inputs": [
        {
          "indexed": true,
          "internalType": "address",
          "name": "_addressAdded",
          "type": "address"
        }
      ],
      "name": "MemberAdded",
      "type": "event"
    },
    {
      "anonymous": false,
      "inputs": [
        {
          "indexed": true,
          "internalType": "address",
          "name": "previousOwner",
          "type": "address"
        },
        {
          "indexed": true,
          "internalType": "address",
          "name": "newOwner",
          "type": "address"
        }
      ],
      "name": "OwnershipTransferred",
      "type": "event"
    },
    {
      "inputs": [],
      "name": "owner",
      "outputs": [
        {
          "internalType": "address",
          "name": "",
          "type": "address"
        }
      ],
      "stateMutability": "view",
      "type": "function",
      "constant": true
    },
    {
      "inputs": [],
      "name": "renounceOwnership",
      "outputs": [],
      "stateMutability": "nonpayable",
      "type": "function"
    },
    {
      "inputs": [
        {
          "internalType": "address",
          "name": "newOwner",
          "type": "address"
        }
      ],
      "name": "transferOwnership",
      "outputs": [],
      "stateMutability": "nonpayable",
      "type": "function"
    },
    {
      "inputs": [
        {
          "internalType": "address",
          "name": "",
          "type": "address"
        }
      ],
      "name": "whitelist",
      "outputs": [
        {
          "internalType": "bool",
          "name": "",
          "type": "bool"
        }
      ],
      "stateMutability": "view",
      "type": "function",
      "constant": true
    },
    {
      "inputs": [
        {
          "internalType": "address",
          "name": "_address",
          "type": "address"
        }
      ],
      "name": "addMember",
      "outputs": [],
      "stateMutability": "nonpayable",
      "type": "function"
    },
    {
      "inputs": [
        {
          "internalType": "address",
          "name": "_address",
          "type": "address"
        }
      ],
      "name": "getMember",
      "outputs": [
        {
          "internalType": "bool",
          "name": "",
          "type": "bool"
        }
      ],
      "stateMutability": "view",
      "type": "function",
      "constant": true
    },
    {
      "inputs": [],
      "name": "getMembers",
      "outputs": [
        {
          "internalType": "address[]",
          "name": "",
          "type": "address[]"
        }
      ],
      "stateMutability": "view",
      "type": "function",
      "constant": true
    },
    {
      "inputs": [
        {
          "internalType": "address",
          "name": "_address",
          "type": "address"
        }
      ],
      "name": "delMember",
      "outputs": [],
      "stateMutability": "nonpayable",
      "type": "function"
    }
  ],
  "bytecode": "0x608060405234801561001057600080fd5b5061001a3361009f565b336000818152600160208190526040808320805460ff19168317905560028054928301815583527f405787fa12a823e0f2b7631cc41b3ba8828b3321ca811111fa75cd3aa3bb5ace90910180546001600160a01b03191684179055517fb251eb052afc73ffd02ffe85ad79990a8b3fed60d76dbc2fa2fdd7123dffd9149190a26100ef565b600080546001600160a01b038381166001600160a01b0319831681178455604051919092169283917f8be0079c531659141344cd1fd0a4f28419497f9722a3daafe3b4186f6b6457e09190a35050565b610b08806100fe6000396000f3fe608060405234801561001057600080fd5b50600436106100885760003560e01c80639b19251a1161005b5780639b19251a146100fa5780639eab52531461011d578063ca6d56dc14610132578063f2fde38b1461014557600080fd5b80631f81595d1461008d5780632ada2596146100a2578063715018a6146100ca5780638da5cb5b146100d2575b600080fd5b6100a061009b36600461095f565b610158565b005b6100b56100b036600461095f565b610428565b60405190151581526020015b60405180910390f35b6100a0610466565b60005460405173ffffffffffffffffffffffffffffffffffffffff90911681526020016100c1565b6100b561010836600461095f565b60016020526000908152604090205460ff1681565b6101256104f3565b6040516100c1919061099c565b6100a061014036600461095f565b6105da565b6100a061015336600461095f565b6107ba565b60005473ffffffffffffffffffffffffffffffffffffffff1633146101de576040517f08c379a000000000000000000000000000000000000000000000000000000000815260206004820181905260248201527f4f776e61626c653a2063616c6c6572206973206e6f7420746865206f776e657260448201526064015b60405180910390fd5b73ffffffffffffffffffffffffffffffffffffffff811660009081526001602052604090205460ff1661026d576040517f08c379a000000000000000000000000000000000000000000000000000000000815260206004820152601560248201527f4d656d626572206e6f742072656769737465726564000000000000000000000060448201526064016101d5565b73ffffffffffffffffffffffffffffffffffffffff8116600090815260016020526040812080547fffffffffffffffffffffffffffffffffffffffffffffffffffffffffffffff00169055805b60025481101561032b578273ffffffffffffffffffffffffffffffffffffffff16600282815481106102ee576102ee6109f6565b60009182526020909120015473ffffffffffffffffffffffffffffffffffffffff1603610319578091505b8061032381610a54565b9150506102ba565b506002805461033c90600190610a8c565b8154811061034c5761034c6109f6565b6000918252602090912001546002805473ffffffffffffffffffffffffffffffffffffffff9092169183908110610385576103856109f6565b600091825260209091200180547fffffffffffffffffffffffff00000000000000000000000000000000000000001673ffffffffffffffffffffffffffffffffffffffff92909216919091179055600280546103e390600190610a8c565b815481106103f3576103f36109f6565b600091825260209091200180547fffffffffffffffffffffffff00000000000000000000000000000000000000001690555050565b73ffffffffffffffffffffffffffffffffffffffff811660009081526001602052604081205460ff161561045e57506001919050565b506000919050565b60005473ffffffffffffffffffffffffffffffffffffffff1633146104e7576040517f08c379a000000000000000000000000000000000000000000000000000000000815260206004820181905260248201527f4f776e61626c653a2063616c6c6572206973206e6f7420746865206f776e657260448201526064016101d5565b6104f160006108ea565b565b60025460609060009067ffffffffffffffff81111561051457610514610aa3565b60405190808252806020026020018201604052801561053d578160200160208202803683370190505b50905060005b6002548110156105d45760028181548110610560576105606109f6565b9060005260206000200160009054906101000a900473ffffffffffffffffffffffffffffffffffffffff1682828151811061059d5761059d6109f6565b73ffffffffffffffffffffffffffffffffffffffff90921660209283029190910190910152806105cc81610a54565b915050610543565b50919050565b60005473ffffffffffffffffffffffffffffffffffffffff16331461065b576040517f08c379a000000000000000000000000000000000000000000000000000000000815260206004820181905260248201527f4f776e61626c653a2063616c6c6572206973206e6f7420746865206f776e657260448201526064016101d5565b73ffffffffffffffffffffffffffffffffffffffff811660009081526001602052604090205460ff16156106eb576040517f08c379a000000000000000000000000000000000000000000000000000000000815260206004820152601d60248201527f4164647265737320697320616c7265616479207265676973746572656400000060448201526064016101d5565b73ffffffffffffffffffffffffffffffffffffffff8116600081815260016020819052604080832080547fffffffffffffffffffffffffffffffffffffffffffffffffffffffffffffff00168317905560028054928301815583527f405787fa12a823e0f2b7631cc41b3ba8828b3321ca811111fa75cd3aa3bb5ace90910180547fffffffffffffffffffffffff00000000000000000000000000000000000000001684179055517fb251eb052afc73ffd02ffe85ad79990a8b3fed60d76dbc2fa2fdd7123dffd9149190a250565b60005473ffffffffffffffffffffffffffffffffffffffff16331461083b576040517f08c379a000000000000000000000000000000000000000000000000000000000815260206004820181905260248201527f4f776e61626c653a2063616c6c6572206973206e6f7420746865206f776e657260448201526064016101d5565b73ffffffffffffffffffffffffffffffffffffffff81166108de576040517f08c379a000000000000000000000000000000000000000000000000000000000815260206004820152602660248201527f4f776e61626c653a206e6577206f776e657220697320746865207a65726f206160448201527f646472657373000000000000000000000000000000000000000000000000000060648201526084016101d5565b6108e7816108ea565b50565b6000805473ffffffffffffffffffffffffffffffffffffffff8381167fffffffffffffffffffffffff0000000000000000000000000000000000000000831681178455604051919092169283917f8be0079c531659141344cd1fd0a4f28419497f9722a3daafe3b4186f6b6457e09190a35050565b60006020828403121561097157600080fd5b813573ffffffffffffffffffffffffffffffffffffffff8116811461099557600080fd5b9392505050565b6020808252825182820181905260009190848201906040850190845b818110156109ea57835173ffffffffffffffffffffffffffffffffffffffff16835292840192918401916001016109b8565b50909695505050505050565b7f4e487b7100000000000000000000000000000000000000000000000000000000600052603260045260246000fd5b7f4e487b7100000000000000000000000000000000000000000000000000000000600052601160045260246000fd5b60007fffffffffffffffffffffffffffffffffffffffffffffffffffffffffffffffff8203610a8557610a85610a25565b5060010190565b600082821015610a9e57610a9e610a25565b500390565b7f4e487b7100000000000000000000000000000000000000000000000000000000600052604160045260246000fdfea2646970667358221220c3a3cd23e80dab32fa03bc749fe0bcdf1dffd134daf6e1e518b11d09b83f7f2d64736f6c634300080d0033",
  "immutableReferences": {},
  "source": "// SPDX-License-Identifier: GPL-3.0\npragma solidity 0.8.13;\n\nimport \"@openzeppelin/contracts/access/Ownable.sol\";\n\ncontract Whitelist is Ownable{\n    mapping(address => bool) public whitelist;\n    address[] private Members;\n\n    event MemberAdded(address indexed _addressAdded);\n\n    constructor(){\n        whitelist[msg.sender] = true;\n        Members.push(msg.sender);\n        emit MemberAdded(msg.sender);\n    }\n\n    function addMember(address _address)external onlyOwner{\n        require(!whitelist[_address], \"Address is already registered\");\n        whitelist[_address] = true;\n        Members.push(_address);\n        emit MemberAdded(_address);\n    }\n\n    function getMember(address _address)external view returns(bool){\n        if(whitelist[_address]){\n            return true;\n        }\n            return false;\n    }\n\n    function getMembers()external view returns(address[] memory){\n        address[] memory tmpMembers = new address[](Members.length);\n        for(uint i; i < Members.length; i++){\n            tmpMembers[i] = Members[i];\n        }\n        return tmpMembers;\n    }\n    \n    function delMember(address _address)external onlyOwner{\n        require(whitelist[_address], \"Member not registered\");\n        whitelist[_address] = false ;\n        uint index;\n        \n        for(uint i; i < Members.length; i++){\n            if(Members[i] == _address){\n               index = i;\n            }\n        }\n        Members[index] = Members[Members.length - 1];\n        delete Members[Members.length - 1];\n    }\n    \n}",
  "sourcePath": "/home/amsteradams/developpement/Solidity/Whitelist/contracts/Whitelist.sol",
  "compiler": {
    "name": "solc",
    "version": "0.8.13+commit.abaa5c0e.Emscripten.clang"
  },
  "schemaVersion": "3.4.6",
  "updatedAt": "2022-04-18T14:40:15.691Z",
  "networkType": "ethereum",
  "devdoc": {
    "kind": "dev",
    "methods": {
      "owner()": {
        "details": "Returns the address of the current owner."
      },
      "renounceOwnership()": {
        "details": "Leaves the contract without owner. It will not be possible to call `onlyOwner` functions anymore. Can only be called by the current owner. NOTE: Renouncing ownership will leave the contract without an owner, thereby removing any functionality that is only available to the owner."
      },
      "transferOwnership(address)": {
        "details": "Transfers ownership of the contract to a new account (`newOwner`). Can only be called by the current owner."
      }
    },
    "version": 1
  },
  "userdoc": {
    "kind": "user",
    "methods": {},
    "version": 1
  }
}